8=FIXT.1.1|9=287|35=8|34=2|49=MME|52=20241108-19:22:25.839|56=PE0086OM1003|57=0086DMA2|6=0|11=Order1|14=0|17=88|37=793045301521810750|38=1000|39=0|40=2|44=119000.000|54=1|55=BSANTANDER|59=0|60=20241108-19:22:25.839|77=D|100=XBCL|150=0|151=1000|453=2|448=PE0086|447=D|452=1|448=PE0086OM1003|447=D|452=12|10=029
8=FIXT.1.1|9=291|35=8|34=3|49=MME|52=20241108-19:22:25.839|56=PE0086OM1003|57=0086DMA2|6=0|11=Order1|14=0|17=89|37=793045301521810750|38=1000|39=4|40=2|44=119000.000|54=1|55=BSANTANDER|59=0|60=20241108-19:22:25.839|77=D|100=XBCL|150=4|151=0|378=17|453=2|448=PE0086|447=D|452=1|448=PE0086OM1003|447=D|452=12|10=217
8=FIXT.1.1|9=285|35=8|34=4|49=MME|52=20241108-19:22:25.842|56=PE0086OM1003|57=0086DMA2|6=0|11=Order2|14=0|17=90|37=793045301521810751|38=1000|39=0|40=2|44=6000.000|54=1|55=BSANTANDER|59=0|60=20241108-19:22:25.842|77=D|100=XBCL|150=0|151=1000|453=2|448=PE0086|447=D|452=1|448=PE0086OM1003|447=D|452=12|10=167
8=FIXT.1.1|9=287|35=8|34=5|49=MME|52=20241108-19:22:25.846|56=PE0086OM1003|57=0086DMA2|6=0|11=Order3|14=0|17=91|37=793045301521810752|38=1000|39=0|40=2|44=119000.000|54=2|55=BSANTANDER|59=0|60=20241108-19:22:25.846|77=D|100=XBCL|150=0|151=1000|453=2|448=PE0086|447=D|452=1|448=PE0086OM1003|447=D|452=12|10=027
8=FIXT.1.1|9=287|35=8|34=6|49=MME|52=20241108-19:22:25.848|56=PE0086OM1003|57=0086DMA2|6=0|11=Order4|14=0|17=92|37=793045301521810753|38=1000|39=0|40=2|44=116000.000|54=2|55=BSANTANDER|59=0|60=20241108-19:22:25.848|77=D|100=XBCL|150=0|151=1000|453=2|448=PE0086|447=D|452=1|448=PE0086OM1003|447=D|452=12|10=032
8=FIXT.1.1|9=291|35=8|34=7|49=MME|52=20241108-19:22:25.848|56=PE0086OM1003|57=0086DMA2|6=0|11=Order4|14=0|17=93|37=793045301521810753|38=1000|39=4|40=2|44=116000.000|54=2|55=BSANTANDER|59=0|60=20241108-19:22:25.848|77=D|100=XBCL|150=4|151=0|378=17|453=2|448=PE0086|447=D|452=1|448=PE0086OM1003|447=D|452=12|10=220
8=FIXT.1.1|9=287|35=8|34=8|49=MME|52=20241108-19:22:25.851|56=PE0086OM1003|57=0086DMA2|6=0|11=Order5|14=0|17=94|37=793045301521810754|38=1500|39=0|40=2|44=116000.000|54=1|55=BSANTANDER|59=0|60=20241108-19:22:25.851|77=D|100=XBCL|150=0|151=1500|453=2|448=PE0086|447=D|452=1|448=PE0086OM1003|447=D|452=12|10=035
8=FIXT.1.1|9=285|35=8|34=9|49=MME|52=20241108-19:22:25.854|56=PE0086OM1003|57=0086DMA2|6=0|11=Order6|14=0|17=95|37=793045301521810755|38=500|39=0|40=2|44=116000.000|54=2|55=BSANTANDER|59=0|60=20241108-19:22:25.854|77=D|100=XBCL|150=0|151=500|453=2|448=PE0086|447=D|452=1|448=PE0086OM1003|447=D|452=12|10=202
8=FIXT.1.1|9=291|35=8|34=10|49=MME|52=20241108-19:22:25.854|56=PE0086OM1003|57=0086DMA2|6=0|11=Order6|14=0|17=96|37=793045301521810755|38=500|39=4|40=2|44=116000.000|54=2|55=BSANTANDER|59=0|60=20241108-19:22:25.854|77=D|100=XBCL|150=4|151=0|378=17|453=2|448=PE0086|447=D|452=1|448=PE0086OM1003|447=D|452=12|10=219
8=FIXT.1.1|9=286|35=8|34=11|49=MME|52=20241108-19:22:25.854|56=PE0086OM1003|57=0086DMA2|6=0|11=Order7|14=0|17=97|37=793045301521810756|38=500|39=0|40=2|44=116000.000|54=1|55=BSANTANDER|59=0|60=20241108-19:22:25.854|77=D|100=XBCL|150=0|151=500|453=2|448=PE0086|447=D|452=1|448=PE0086OM1003|447=D|452=12|10=247
8=FIXT.1.1|9=286|35=8|34=12|49=MME|52=20241108-19:22:25.857|56=PE0086OM1003|57=0086DMA2|6=0|11=Order8|14=0|17=98|37=793045301521810757|38=300|39=0|40=2|44=116000.000|54=2|55=BSANTANDER|59=0|60=20241108-19:22:25.857|77=D|100=XBCL|150=0|151=300|453=2|448=PE0086|447=D|452=1|448=PE0086OM1003|447=D|452=12|10=254
8=FIXT.1.1|9=291|35=8|34=13|49=MME|52=20241108-19:22:25.857|56=PE0086OM1003|57=0086DMA2|6=0|11=Order8|14=0|17=99|37=793045301521810757|38=300|39=4|40=2|44=116000.000|54=2|55=BSANTANDER|59=0|60=20241108-19:22:25.857|77=D|100=XBCL|150=4|151=0|378=17|453=2|448=PE0086|447=D|452=1|448=PE0086OM1003|447=D|452=12|10=233
8=FIXT.1.1|9=288|35=8|34=14|49=MME|52=20241108-19:22:25.863|56=PE0086OM1003|57=0086DMA2|6=0|11=Order9|14=0|17=100|37=NONE|38=500|39=8|40=2|54=1|55=BSANTANDER|59=4|60=20241108-19:22:25.863|150=8|151=0|1328=[-420029] Given premium is not allowed.|453=2|448=PE0086|447=D|452=1|448=PE0086OM1003|447=D|452=12|10=228
8=FIXT.1.1|9=288|35=8|34=15|49=MME|52=20241108-19:22:25.863|56=PE0086OM1003|57=0086DMA2|6=0|11=Order10|14=0|17=101|37=NONE|38=800|39=8|40=2|54=1|55=BSANTANDER|59=4|60=20241108-19:22:25.863|150=8|151=0|1328=[-420029] Given premium is not allowed.|453=2|448=PE0086|447=D|452=1|448=PE0086OM1003|447=D|452=12|10=225
